{
  "contractName": "VicsToken",
  "abi": [
    {
      "constant": true,
      "inputs": [],
      "name": "totalSupply",
      "outputs": [
        {
          "name": "",
          "type": "uint256"
        }
      ],
      "payable": false,
      "stateMutability": "view",
      "type": "function"
    },
    {
      "inputs": [],
      "payable": false,
      "stateMutability": "nonpayable",
      "type": "constructor"
    }
  ],
  "bytecode": "0x608060405234801561001057600080fd5b50620f4240600081905550609e806100296000396000f300608060405260043610603f576000357c0100000000000000000000000000000000000000000000000000000000900463ffffffff16806318160ddd146044575b600080fd5b348015604f57600080fd5b506056606c565b6040518082815260200191505060405180910390f35b600054815600a165627a7a72305820420761003edbc82b718916b0f76dbefe872dda4379625abd827a1c252b333c580029",
  "source": "pragma solidity ^0.4.2;\r\n\r\ncontract VicsToken {\r\n\t// Constructor\r\n\t// Set the total number of tokens\r\n\t// Read the total number of tokens\r\n\r\n\t// public visibility gives a getter function \r\n\tuint256 public totalSupply;\r\n\r\n\tfunction VicsToken () public {\r\n\t\t// 1 M total supply\r\n\t\t// state varaible is available to total contract and will write to storage\r\n\t\ttotalSupply = 1000000;\r\n\t}\r\n}",
  "sourcePath": "C:\\Users\\fredj\\Documents\\token_sale\\contracts\\VicsToken.sol",
  "compiler": {
    "name": "solc",
    "version": "0.4.24+commit.e67f0147.Emscripten.clang"
  },
  "schemaVersion": "2.0.1",
  "updatedAt": "2018-09-28T07:53:20.688Z"
}